{
  "contractName": "userContract",
  "abi": [
    {
      "inputs": [],
      "stateMutability": "nonpayable",
      "type": "constructor"
    },
    {
      "anonymous": false,
      "inputs": [
        {
          "indexed": true,
          "internalType": "address",
          "name": "_userAddress",
          "type": "address"
        },
        {
          "indexed": false,
          "internalType": "string",
          "name": "_username",
          "type": "string"
        },
        {
          "indexed": false,
          "internalType": "uint256",
          "name": "_timestamp",
          "type": "uint256"
        },
        {
          "indexed": false,
          "internalType": "uint256",
          "name": "_index",
          "type": "uint256"
        }
      ],
      "name": "NewUserCreated",
      "type": "event"
    },
    {
      "inputs": [],
      "name": "owner",
      "outputs": [
        {
          "internalType": "address",
          "name": "",
          "type": "address"
        }
      ],
      "stateMutability": "view",
      "type": "function",
      "constant": true
    },
    {
      "inputs": [
        {
          "internalType": "uint256",
          "name": "",
          "type": "uint256"
        }
      ],
      "name": "userAddresses",
      "outputs": [
        {
          "internalType": "address",
          "name": "",
          "type": "address"
        }
      ],
      "stateMutability": "view",
      "type": "function",
      "constant": true
    },
    {
      "inputs": [
        {
          "internalType": "address",
          "name": "_userAddress",
          "type": "address"
        }
      ],
      "name": "isExitUserAddress",
      "outputs": [
        {
          "internalType": "bool",
          "name": "isIndeed",
          "type": "bool"
        }
      ],
      "stateMutability": "view",
      "type": "function",
      "constant": true
    },
    {
      "inputs": [
        {
          "internalType": "string",
          "name": "_username",
          "type": "string"
        }
      ],
      "name": "isExitUsername",
      "outputs": [
        {
          "internalType": "bool",
          "name": "isIndeed",
          "type": "bool"
        }
      ],
      "stateMutability": "view",
      "type": "function",
      "constant": true
    },
    {
      "inputs": [
        {
          "internalType": "string",
          "name": "_username",
          "type": "string"
        }
      ],
      "name": "findUserAddressByUsername",
      "outputs": [
        {
          "internalType": "address",
          "name": "userAddress",
          "type": "address"
        }
      ],
      "stateMutability": "view",
      "type": "function",
      "constant": true
    },
    {
      "inputs": [
        {
          "internalType": "address",
          "name": "_userAddress",
          "type": "address"
        },
        {
          "internalType": "string",
          "name": "_username",
          "type": "string"
        }
      ],
      "name": "createUser",
      "outputs": [
        {
          "internalType": "uint256",
          "name": "index",
          "type": "uint256"
        }
      ],
      "stateMutability": "nonpayable",
      "type": "function"
    },
    {
      "inputs": [
        {
          "internalType": "address",
          "name": "_userAddress",
          "type": "address"
        }
      ],
      "name": "findUser",
      "outputs": [
        {
          "internalType": "address",
          "name": "userAddr",
          "type": "address"
        },
        {
          "internalType": "string",
          "name": "username",
          "type": "string"
        },
        {
          "internalType": "uint256",
          "name": "time",
          "type": "uint256"
        },
        {
          "internalType": "uint256",
          "name": "index",
          "type": "uint256"
        }
      ],
      "stateMutability": "view",
      "type": "function",
      "constant": true
    }
  ],
  "bytecode": "0x608060405234801561001057600080fd5b506111af806100206000396000f3fe608060405234801561001057600080fd5b506004361061007d5760003560e01c8063a83db77f1161005b578063a83db77f14610100578063c4ec3db614610130578063df9d902414610160578063f9bcd545146101935761007d565b8063295db39214610082578063502c9bd5146100b25780638da5cb5b146100e2575b600080fd5b61009c600480360381019061009791906109d6565b6101c3565b6040516100a99190610a60565b60405180910390f35b6100cc60048036038101906100c79190610ab1565b610220565b6040516100d99190610a60565b60405180910390f35b6100ea61025f565b6040516100f79190610a60565b60405180910390f35b61011a600480360381019061011591906109d6565b610283565b6040516101279190610af9565b60405180910390f35b61014a60048036038101906101459190610b40565b6102ff565b6040516101579190610af9565b60405180910390f35b61017a60048036038101906101759190610b40565b6103cd565b60405161018a9493929190610bfb565b60405180910390f35b6101ad60048036038101906101a89190610c47565b6105ac565b6040516101ba9190610ca3565b60405180910390f35b60006101ce82610283565b6101d757600080fd5b6004826040516101e79190610cfa565b908152602001604051809103902060000160009054906101000a900473ffffffffffffffffffffffffffffffffffffffff169050919050565b6001818154811061023057600080fd5b906000526020600020016000915054906101000a900473ffffffffffffffffffffffffffffffffffffffff1681565b60008054906101000a900473ffffffffffffffffffffffffffffffffffffffff1681565b6000806002805490500361029a57600090506102fa565b818051906020012060026004846040516102b49190610cfa565b908152602001604051809103902060010154815481106102d7576102d6610d11565b5b906000526020600020016040516102ee9190610e43565b60405180910390201490505b919050565b6000806001805490500361031657600090506103c8565b8173ffffffffffffffffffffffffffffffffffffffff166001600360008573ffffffffffffffffffffffffffffffffffffffff1673ffffffffffffffffffffffffffffffffffffffff168152602001908152602001600020600301548154811061038357610382610d11565b5b9060005260206000200160009054906101000a900473ffffffffffffffffffffffffffffffffffffffff1673ffffffffffffffffffffffffffffffffffffffff161490505b919050565b600060606000806103dd856102ff565b6103e657600080fd5b600360008673ffffffffffffffffffffffffffffffffffffffff1673ffffffffffffffffffffffffffffffffffffffff16815260200190815260200160002060000160009054906101000a900473ffffffffffffffffffffffffffffffffffffffff16600360008773ffffffffffffffffffffffffffffffffffffffff1673ffffffffffffffffffffffffffffffffffffffff168152602001908152602001600020600101600360008873ffffffffffffffffffffffffffffffffffffffff1673ffffffffffffffffffffffffffffffffffffffff16815260200190815260200160002060020154600360008973ffffffffffffffffffffffffffffffffffffffff1673ffffffffffffffffffffffffffffffffffffffff1681526020019081526020016000206003015482805461051d90610d6f565b80601f016020809104026020016040519081016040528092919081815260200182805461054990610d6f565b80156105965780601f1061056b57610100808354040283529160200191610596565b820191906000526020600020905b81548152906001019060200180831161057957829003601f168201915b5050505050925093509350935093509193509193565b60006105b7836102ff565b156105c157600080fd5b6001839080600181540180825580915050600190039060005260206000200160009091909190916101000a81548173ffffffffffffffffffffffffffffffffffffffff021916908373ffffffffffffffffffffffffffffffffffffffff16021790555060405180608001604052808473ffffffffffffffffffffffffffffffffffffffff168152602001838152602001428152602001600180805490506106689190610e89565b815250600360008573ffffffffffffffffffffffffffffffffffffffff1673ffffffffffffffffffffffffffffffffffffffff16815260200190815260200160002060008201518160000160006101000a81548173ffffffffffffffffffffffffffffffffffffffff021916908373ffffffffffffffffffffffffffffffffffffffff16021790555060208201518160010190816107069190611069565b5060408201518160020155606082015181600301559050506002829080600181540180825580915050600190039060005260206000200160009091909190915090816107529190611069565b5060405180604001604052808473ffffffffffffffffffffffffffffffffffffffff168152602001600160028054905061078c9190610e89565b81525060048360405161079f9190610cfa565b908152602001604051809103902060008201518160000160006101000a81548173ffffffffffffffffffffffffffffffffffffffff021916908373ffffffffffffffffffffffffffffffffffffffff160217905550602082015181600101559050508273ffffffffffffffffffffffffffffffffffffffff167fa62fae75b70a4cd72f1854b17a52c487995217d67452ccf3827e1d4a94033a2383426001808054905061084c9190610e89565b60405161085b9392919061113b565b60405180910390a2600180805490506108749190610e89565b905092915050565b6000604051905090565b600080fd5b600080fd5b600080fd5b600080fd5b6000601f19601f8301169050919050565b7f4e487b7100000000000000000000000000000000000000000000000000000000600052604160045260246000fd5b6108e38261089a565b810181811067ffffffffffffffff82111715610902576109016108ab565b5b80604052505050565b600061091561087c565b905061092182826108da565b919050565b600067ffffffffffffffff821115610941576109406108ab565b5b61094a8261089a565b9050602081019050919050565b82818337600083830152505050565b600061097961097484610926565b61090b565b90508281526020810184848401111561099557610994610895565b5b6109a0848285610957565b509392505050565b600082601f8301126109bd576109bc610890565b5b81356109cd848260208601610966565b91505092915050565b6000602082840312156109ec576109eb610886565b5b600082013567ffffffffffffffff811115610a0a57610a0961088b565b5b610a16848285016109a8565b91505092915050565b600073ffffffffffffffffffffffffffffffffffffffff82169050919050565b6000610a4a82610a1f565b9050919050565b610a5a81610a3f565b82525050565b6000602082019050610a756000830184610a51565b92915050565b6000819050919050565b610a8e81610a7b565b8114610a9957600080fd5b50565b600081359050610aab81610a85565b92915050565b600060208284031215610ac757610ac6610886565b5b6000610ad584828501610a9c565b91505092915050565b60008115159050919050565b610af381610ade565b82525050565b6000602082019050610b0e6000830184610aea565b92915050565b610b1d81610a3f565b8114610b2857600080fd5b50565b600081359050610b3a81610b14565b92915050565b600060208284031215610b5657610b55610886565b5b6000610b6484828501610b2b565b91505092915050565b600081519050919050565b600082825260208201905092915050565b60005b83811015610ba7578082015181840152602081019050610b8c565b60008484015250505050565b6000610bbe82610b6d565b610bc88185610b78565b9350610bd8818560208601610b89565b610be18161089a565b840191505092915050565b610bf581610a7b565b82525050565b6000608082019050610c106000830187610a51565b8181036020830152610c228186610bb3565b9050610c316040830185610bec565b610c3e6060830184610bec565b95945050505050565b60008060408385031215610c5e57610c5d610886565b5b6000610c6c85828601610b2b565b925050602083013567ffffffffffffffff811115610c8d57610c8c61088b565b5b610c99858286016109a8565b9150509250929050565b6000602082019050610cb86000830184610bec565b92915050565b600081905092915050565b6000610cd482610b6d565b610cde8185610cbe565b9350610cee818560208601610b89565b80840191505092915050565b6000610d068284610cc9565b915081905092915050565b7f4e487b7100000000000000000000000000000000000000000000000000000000600052603260045260246000fd5b7f4e487b7100000000000000000000000000000000000000000000000000000000600052602260045260246000fd5b60006002820490506001821680610d8757607f821691505b602082108103610d9a57610d99610d40565b5b50919050565b600081905092915050565b60008190508160005260206000209050919050565b60008154610dcd81610d6f565b610dd78186610da0565b94506001821660008114610df25760018114610e0757610e3a565b60ff1983168652811515820286019350610e3a565b610e1085610dab565b60005b83811015610e3257815481890152600182019150602081019050610e13565b838801955050505b50505092915050565b6000610e4f8284610dc0565b915081905092915050565b7f4e487b7100000000000000000000000000000000000000000000000000000000600052601160045260246000fd5b6000610e9482610a7b565b9150610e9f83610a7b565b9250828203905081811115610eb757610eb6610e5a565b5b92915050565b60008190508160005260206000209050919050565b60006020601f8301049050919050565b600082821b905092915050565b600060088302610f1f7fffffffffffffffffffffffffffffffffffffffffffffffffffffffffffffffff82610ee2565b610f298683610ee2565b95508019841693508086168417925050509392505050565b6000819050919050565b6000610f66610f61610f5c84610a7b565b610f41565b610a7b565b9050919050565b6000819050919050565b610f8083610f4b565b610f94610f8c82610f6d565b848454610eef565b825550505050565b600090565b610fa9610f9c565b610fb4818484610f77565b505050565b5b81811015610fd857610fcd600082610fa1565b600181019050610fba565b5050565b601f82111561101d57610fee81610ebd565b610ff784610ed2565b81016020851015611006578190505b61101a61101285610ed2565b830182610fb9565b50505b505050565b600082821c905092915050565b600061104060001984600802611022565b1980831691505092915050565b6000611059838361102f565b9150826002028217905092915050565b61107282610b6d565b67ffffffffffffffff81111561108b5761108a6108ab565b5b6110958254610d6f565b6110a0828285610fdc565b600060209050601f8311600181146110d357600084156110c1578287015190505b6110cb858261104d565b865550611133565b601f1984166110e186610ebd565b60005b82811015611109578489015182556001820191506020850194506020810190506110e4565b868310156111265784890151611122601f89168261102f565b8355505b6001600288020188555050505b505050505050565b600060608201905081810360008301526111558186610bb3565b90506111646020830185610bec565b6111716040830184610bec565b94935050505056fea2646970667358221220d570f07cd79e2903221c75906247c00f297f3604c99ff27e6faa0d714b35f1a164736f6c63430008110033",
  "immutableReferences": {},
  "source": "// SPDX-License-Identifier: GPL-3.0\n// \npragma solidity >0.8.0;\n\ncontract userContract {\n    constructor() {}\n\n    //\n    address public owner;\n\n    //\n    struct UserStruct {\n        address userAddress;\n        string username;\n        uint time;\n        uint index;\n    }\n\n    //\n    struct UserListStruct {\n        address userAddress;\n        uint index;\n    }\n\n    address[] public userAddresses; //\n    // userAddresses.push(0x0987654321098765432109876543210987654321);\n    string[] private usernames; //\n\n    /**\n     *  userStruct:{\n            0x1234567890123456789012345678901234567890: {\n                userAddress: 0x1234567890123456789012345678901234567890,\n                username: \"Alice\",\n                time: 1234567890,\n                index: 0\n            },\n            0x0987654321098765432109876543210987654321: {\n                userAddress: 0x0987654321098765432109876543210987654321,\n                username: \"Bob\",\n                time: 1234567900,\n                index: 1\n            }\n     } \n     */\n    mapping(address => UserStruct) private userStruct; //\n\n    /**\n     *  userListStruct:{\n        \"alice\": {\"userAddress\": \"0x1234567890abcdef\", \"index\": 0}\n        \"bob\": {\"userAddress\": \"0xabcdef1234567890\", \"index\": 1}\n     }\n     */\n    mapping(string => UserListStruct) private userListStruct; //\n\n    //user.sol\n    //\n    function isExitUserAddress(\n        address _userAddress\n    ) public view returns (bool isIndeed) {\n        if (userAddresses.length == 0) return false;\n        return (userAddresses[userStruct[_userAddress].index] == _userAddress);\n    }\n\n    //\n    function isExitUsername(\n        string memory _username\n    ) public view returns (bool isIndeed) {\n        // flase\n        if (usernames.length == 0) return false;\n        // username == _usernametrueflase\n        return (keccak256(bytes(usernames[userListStruct[_username].index])) ==\n            keccak256(bytes(_username)));\n    }\n\n    //address\n    function findUserAddressByUsername(\n        string memory _username\n    ) public view returns (address userAddress) {\n        require(isExitUsername(_username));\n        return userListStruct[_username].userAddress;\n    }\n\n    // \n    event NewUserCreated(\n        address indexed _userAddress,\n        string _username,\n        uint _timestamp,\n        uint _index\n    );\n\n    //\n    //0\n    function createUser(\n        address _userAddress,\n        string memory _username\n    ) public returns (uint index) {\n        require(!isExitUserAddress(_userAddress)); //\n\n        userAddresses.push(_userAddress); //push\n        //\n        userStruct[_userAddress] = UserStruct(\n            _userAddress,\n            _username,\n            block.timestamp,\n            userAddresses.length - 1\n        );\n\n        usernames.push(_username); //push\n        //\n        userListStruct[_username] = UserListStruct(\n            _userAddress,\n            usernames.length - 1\n        );\n        emit NewUserCreated(\n            _userAddress,\n            _username,\n            block.timestamp,\n            userAddresses.length - 1\n        );\n        //\n        return userAddresses.length - 1;\n    }\n\n    //\n    function findUser(\n        address _userAddress\n    )\n        public\n        view\n        returns (\n            address userAddr,\n            string memory username,\n            uint time,\n            uint index\n        )\n    {\n        require(isExitUserAddress(_userAddress));\n        return (\n            userStruct[_userAddress].userAddress,\n            userStruct[_userAddress].username,\n            userStruct[_userAddress].time,\n            userStruct[_userAddress].index\n        );\n    }\n}\n",
  "sourcePath": "/Users/hidioter/newsProject/newsContracts/contracts/userContract.sol",
  "compiler": {
    "name": "solc",
    "version": "0.8.17+commit.8df45f5f.Emscripten.clang"
  },
  "schemaVersion": "3.4.11",
  "updatedAt": "2023-03-14T16:35:57.188Z",
  "networkType": "ethereum",
  "devdoc": {
    "kind": "dev",
    "methods": {},
    "version": 1
  },
  "userdoc": {
    "kind": "user",
    "methods": {},
    "version": 1
  }
}