{
  "contractName": "userContract",
  "abi": [
    {
      "inputs": [],
      "stateMutability": "nonpayable",
      "type": "constructor"
    },
    {
      "anonymous": false,
      "inputs": [
        {
          "indexed": false,
          "internalType": "string",
          "name": "_ipfsHash",
          "type": "string"
        },
        {
          "indexed": false,
          "internalType": "string",
          "name": "_username",
          "type": "string"
        },
        {
          "indexed": false,
          "internalType": "address",
          "name": "_userAddress",
          "type": "address"
        },
        {
          "indexed": false,
          "internalType": "uint256",
          "name": "_time",
          "type": "uint256"
        },
        {
          "indexed": false,
          "internalType": "uint256",
          "name": "_index",
          "type": "uint256"
        }
      ],
      "name": "NewNewsCreated",
      "type": "event"
    },
    {
      "anonymous": false,
      "inputs": [
        {
          "indexed": true,
          "internalType": "address",
          "name": "_userAddress",
          "type": "address"
        },
        {
          "indexed": false,
          "internalType": "string",
          "name": "_username",
          "type": "string"
        },
        {
          "indexed": false,
          "internalType": "uint256",
          "name": "_timestamp",
          "type": "uint256"
        },
        {
          "indexed": false,
          "internalType": "uint256",
          "name": "_index",
          "type": "uint256"
        }
      ],
      "name": "NewUserCreated",
      "type": "event"
    },
    {
      "inputs": [
        {
          "internalType": "address",
          "name": "",
          "type": "address"
        }
      ],
      "name": "NewsStruct",
      "outputs": [
        {
          "internalType": "string",
          "name": "ipfsHash",
          "type": "string"
        },
        {
          "internalType": "string",
          "name": "username",
          "type": "string"
        },
        {
          "internalType": "address",
          "name": "userAddress",
          "type": "address"
        },
        {
          "internalType": "uint256",
          "name": "time",
          "type": "uint256"
        },
        {
          "internalType": "uint256",
          "name": "index",
          "type": "uint256"
        }
      ],
      "stateMutability": "view",
      "type": "function",
      "constant": true
    },
    {
      "inputs": [
        {
          "internalType": "uint256",
          "name": "",
          "type": "uint256"
        }
      ],
      "name": "newsHashList",
      "outputs": [
        {
          "internalType": "string",
          "name": "",
          "type": "string"
        }
      ],
      "stateMutability": "view",
      "type": "function",
      "constant": true
    },
    {
      "inputs": [],
      "name": "owner",
      "outputs": [
        {
          "internalType": "address",
          "name": "",
          "type": "address"
        }
      ],
      "stateMutability": "view",
      "type": "function",
      "constant": true
    },
    {
      "inputs": [
        {
          "internalType": "uint256",
          "name": "",
          "type": "uint256"
        }
      ],
      "name": "userAddresses",
      "outputs": [
        {
          "internalType": "address",
          "name": "",
          "type": "address"
        }
      ],
      "stateMutability": "view",
      "type": "function",
      "constant": true
    },
    {
      "inputs": [
        {
          "internalType": "address",
          "name": "_userAddress",
          "type": "address"
        }
      ],
      "name": "isExitUserAddress",
      "outputs": [
        {
          "internalType": "bool",
          "name": "isIndeed",
          "type": "bool"
        }
      ],
      "stateMutability": "view",
      "type": "function",
      "constant": true
    },
    {
      "inputs": [
        {
          "internalType": "string",
          "name": "_newsHash",
          "type": "string"
        }
      ],
      "name": "isNewsHashExist",
      "outputs": [
        {
          "internalType": "bool",
          "name": "",
          "type": "bool"
        }
      ],
      "stateMutability": "view",
      "type": "function",
      "constant": true
    },
    {
      "inputs": [
        {
          "internalType": "string",
          "name": "_username",
          "type": "string"
        }
      ],
      "name": "isExitUsername",
      "outputs": [
        {
          "internalType": "bool",
          "name": "isIndeed",
          "type": "bool"
        }
      ],
      "stateMutability": "view",
      "type": "function",
      "constant": true
    },
    {
      "inputs": [
        {
          "internalType": "string",
          "name": "_username",
          "type": "string"
        }
      ],
      "name": "findUserAddressByUsername",
      "outputs": [
        {
          "internalType": "address",
          "name": "userAddress",
          "type": "address"
        }
      ],
      "stateMutability": "view",
      "type": "function",
      "constant": true
    },
    {
      "inputs": [
        {
          "internalType": "address",
          "name": "_userAddress",
          "type": "address"
        },
        {
          "internalType": "string",
          "name": "_username",
          "type": "string"
        }
      ],
      "name": "createUser",
      "outputs": [
        {
          "internalType": "uint256",
          "name": "index",
          "type": "uint256"
        }
      ],
      "stateMutability": "nonpayable",
      "type": "function"
    },
    {
      "inputs": [
        {
          "internalType": "address",
          "name": "_userAddress",
          "type": "address"
        }
      ],
      "name": "findUser",
      "outputs": [
        {
          "internalType": "address",
          "name": "userAddr",
          "type": "address"
        },
        {
          "internalType": "string",
          "name": "username",
          "type": "string"
        },
        {
          "internalType": "uint256",
          "name": "time",
          "type": "uint256"
        },
        {
          "internalType": "uint256",
          "name": "index",
          "type": "uint256"
        }
      ],
      "stateMutability": "view",
      "type": "function",
      "constant": true
    },
    {
      "inputs": [
        {
          "internalType": "string",
          "name": "_ipfsHash",
          "type": "string"
        },
        {
          "internalType": "string",
          "name": "_username",
          "type": "string"
        },
        {
          "internalType": "address",
          "name": "_userAddress",
          "type": "address"
        }
      ],
      "name": "createNews",
      "outputs": [
        {
          "internalType": "uint256",
          "name": "index",
          "type": "uint256"
        }
      ],
      "stateMutability": "nonpayable",
      "type": "function"
    }
  ],
  "bytecode": "0x608060405234801561001057600080fd5b50611862806100206000396000f3fe608060405234801561001057600080fd5b50600436106100a95760003560e01c80639bb749a8116100715780639bb749a81461018c578063a83db77f146101c0578063c4ec3db6146101f0578063c8b8887114610220578063df9d902414610250578063f9bcd54514610283576100a9565b8063295db392146100ae578063502c9bd5146100de57806358e96f501461010e578063719224e01461013e5780638da5cb5b1461016e575b600080fd5b6100c860048036038101906100c39190610f33565b6102b3565b6040516100d59190610fbd565b60405180910390f35b6100f860048036038101906100f3919061100e565b610310565b6040516101059190610fbd565b60405180910390f35b6101286004803603810190610123919061100e565b61034f565b60405161013591906110ba565b60405180910390f35b61015860048036038101906101539190610f33565b6103fb565b60405161016591906110f7565b60405180910390f35b610176610478565b6040516101839190610fbd565b60405180910390f35b6101a660048036038101906101a1919061113e565b61049c565b6040516101b795949392919061117a565b60405180910390f35b6101da60048036038101906101d59190610f33565b610602565b6040516101e791906110f7565b60405180910390f35b61020a6004803603810190610205919061113e565b61067e565b60405161021791906110f7565b60405180910390f35b61023a600480360381019061023591906111db565b61074c565b6040516102479190611266565b60405180910390f35b61026a6004803603810190610265919061113e565b610927565b60405161027a9493929190611281565b60405180910390f35b61029d600480360381019061029891906112cd565b610b06565b6040516102aa9190611266565b60405180910390f35b60006102be82610602565b6102c757600080fd5b6006826040516102d79190611365565b908152602001604051809103902060000160009054906101000a900473ffffffffffffffffffffffffffffffffffffffff169050919050565b6002818154811061032057600080fd5b906000526020600020016000915054906101000a900473ffffffffffffffffffffffffffffffffffffffff1681565b6001818154811061035f57600080fd5b90600052602060002001600091509050805461037a906113ab565b80601f01602080910402602001604051908101604052809291908181526020018280546103a6906113ab565b80156103f35780601f106103c8576101008083540402835291602001916103f3565b820191906000526020600020905b8154815290600101906020018083116103d657829003601f168201915b505050505081565b600080600090505b60018054905081101561046d5782805190602001206001828154811061042c5761042b6113dc565b5b9060005260206000200160405161044391906114ae565b60405180910390200361045a576001915050610473565b8080610465906114f4565b915050610403565b50600090505b919050565b60008054906101000a900473ffffffffffffffffffffffffffffffffffffffff1681565b60046020528060005260406000206000915090508060000180546104bf906113ab565b80601f01602080910402602001604051908101604052809291908181526020018280546104eb906113ab565b80156105385780601f1061050d57610100808354040283529160200191610538565b820191906000526020600020905b81548152906001019060200180831161051b57829003601f168201915b50505050509080600101805461054d906113ab565b80601f0160208091040260200160405190810160405280929190818152602001828054610579906113ab565b80156105c65780601f1061059b576101008083540402835291602001916105c6565b820191906000526020600020905b8154815290600101906020018083116105a957829003601f168201915b5050505050908060020160009054906101000a900473ffffffffffffffffffffffffffffffffffffffff16908060030154908060040154905085565b600080600380549050036106195760009050610679565b818051906020012060036006846040516106339190611365565b90815260200160405180910390206001015481548110610656576106556113dc565b5b9060005260206000200160405161066d91906114ae565b60405180910390201490505b919050565b600080600280549050036106955760009050610747565b8173ffffffffffffffffffffffffffffffffffffffff166002600560008573ffffffffffffffffffffffffffffffffffffffff1673ffffffffffffffffffffffffffffffffffffffff1681526020019081526020016000206003015481548110610702576107016113dc565b5b9060005260206000200160009054906101000a900473ffffffffffffffffffffffffffffffffffffffff1673ffffffffffffffffffffffffffffffffffffffff161490505b919050565b60006107578261067e565b61076057600080fd5b610769846103fb565b1561077357600080fd5b6001849080600181540180825580915050600190039060005260206000200160009091909190915090816107a791906116e8565b506040518060a001604052808581526020018481526020018373ffffffffffffffffffffffffffffffffffffffff168152602001428152602001600180805490506107f291906117ba565b815250600460008473ffffffffffffffffffffffffffffffffffffffff1673ffffffffffffffffffffffffffffffffffffffff168152602001908152602001600020600082015181600001908161084991906116e8565b50602082015181600101908161085f91906116e8565b5060408201518160020160006101000a81548173ffffffffffffffffffffffffffffffffffffffff021916908373ffffffffffffffffffffffffffffffffffffffff16021790555060608201518160030155608082015181600401559050507f0c974428a139c9083e0f7a1873b52061520beda0b4d19cededcb58041cab6c4384848442600180805490506108f491906117ba565b60405161090595949392919061117a565b60405180910390a16001808054905061091e91906117ba565b90509392505050565b600060606000806109378561067e565b61094057600080fd5b600560008673ffffffffffffffffffffffffffffffffffffffff1673ffffffffffffffffffffffffffffffffffffffff16815260200190815260200160002060000160009054906101000a900473ffffffffffffffffffffffffffffffffffffffff16600560008773ffffffffffffffffffffffffffffffffffffffff1673ffffffffffffffffffffffffffffffffffffffff168152602001908152602001600020600101600560008873ffffffffffffffffffffffffffffffffffffffff1673ffffffffffffffffffffffffffffffffffffffff16815260200190815260200160002060020154600560008973ffffffffffffffffffffffffffffffffffffffff1673ffffffffffffffffffffffffffffffffffffffff16815260200190815260200160002060030154828054610a77906113ab565b80601f0160208091040260200160405190810160405280929190818152602001828054610aa3906113ab565b8015610af05780601f10610ac557610100808354040283529160200191610af0565b820191906000526020600020905b815481529060010190602001808311610ad357829003601f168201915b5050505050925093509350935093509193509193565b6000610b118361067e565b15610b1b57600080fd5b6002839080600181540180825580915050600190039060005260206000200160009091909190916101000a81548173ffffffffffffffffffffffffffffffffffffffff021916908373ffffffffffffffffffffffffffffffffffffffff16021790555060405180608001604052808473ffffffffffffffffffffffffffffffffffffffff1681526020018381526020014281526020016001600280549050610bc391906117ba565b815250600560008573ffffffffffffffffffffffffffffffffffffffff1673ffffffffffffffffffffffffffffffffffffffff16815260200190815260200160002060008201518160000160006101000a81548173ffffffffffffffffffffffffffffffffffffffff021916908373ffffffffffffffffffffffffffffffffffffffff1602179055506020820151816001019081610c6191906116e8565b506040820151816002015560608201518160030155905050600382908060018154018082558091505060019003906000526020600020016000909190919091509081610cad91906116e8565b5060405180604001604052808473ffffffffffffffffffffffffffffffffffffffff1681526020016001600380549050610ce791906117ba565b815250600683604051610cfa9190611365565b908152602001604051809103902060008201518160000160006101000a81548173ffffffffffffffffffffffffffffffffffffffff021916908373ffffffffffffffffffffffffffffffffffffffff160217905550602082015181600101559050508273ffffffffffffffffffffffffffffffffffffffff167fa62fae75b70a4cd72f1854b17a52c487995217d67452ccf3827e1d4a94033a2383426001600280549050610da891906117ba565b604051610db7939291906117ee565b60405180910390a26001600280549050610dd191906117ba565b905092915050565b6000604051905090565b600080fd5b600080fd5b600080fd5b600080fd5b6000601f19601f8301169050919050565b7f4e487b7100000000000000000000000000000000000000000000000000000000600052604160045260246000fd5b610e4082610df7565b810181811067ffffffffffffffff82111715610e5f57610e5e610e08565b5b80604052505050565b6000610e72610dd9565b9050610e7e8282610e37565b919050565b600067ffffffffffffffff821115610e9e57610e9d610e08565b5b610ea782610df7565b9050602081019050919050565b82818337600083830152505050565b6000610ed6610ed184610e83565b610e68565b905082815260208101848484011115610ef257610ef1610df2565b5b610efd848285610eb4565b509392505050565b600082601f830112610f1a57610f19610ded565b5b8135610f2a848260208601610ec3565b91505092915050565b600060208284031215610f4957610f48610de3565b5b600082013567ffffffffffffffff811115610f6757610f66610de8565b5b610f7384828501610f05565b91505092915050565b600073ffffffffffffffffffffffffffffffffffffffff82169050919050565b6000610fa782610f7c565b9050919050565b610fb781610f9c565b82525050565b6000602082019050610fd26000830184610fae565b92915050565b6000819050919050565b610feb81610fd8565b8114610ff657600080fd5b50565b60008135905061100881610fe2565b92915050565b60006020828403121561102457611023610de3565b5b600061103284828501610ff9565b91505092915050565b600081519050919050565b600082825260208201905092915050565b60005b8381101561107557808201518184015260208101905061105a565b60008484015250505050565b600061108c8261103b565b6110968185611046565b93506110a6818560208601611057565b6110af81610df7565b840191505092915050565b600060208201905081810360008301526110d48184611081565b905092915050565b60008115159050919050565b6110f1816110dc565b82525050565b600060208201905061110c60008301846110e8565b92915050565b61111b81610f9c565b811461112657600080fd5b50565b60008135905061113881611112565b92915050565b60006020828403121561115457611153610de3565b5b600061116284828501611129565b91505092915050565b61117481610fd8565b82525050565b600060a08201905081810360008301526111948188611081565b905081810360208301526111a88187611081565b90506111b76040830186610fae565b6111c4606083018561116b565b6111d1608083018461116b565b9695505050505050565b6000806000606084860312156111f4576111f3610de3565b5b600084013567ffffffffffffffff81111561121257611211610de8565b5b61121e86828701610f05565b935050602084013567ffffffffffffffff81111561123f5761123e610de8565b5b61124b86828701610f05565b925050604061125c86828701611129565b9150509250925092565b600060208201905061127b600083018461116b565b92915050565b60006080820190506112966000830187610fae565b81810360208301526112a88186611081565b90506112b7604083018561116b565b6112c4606083018461116b565b95945050505050565b600080604083850312156112e4576112e3610de3565b5b60006112f285828601611129565b925050602083013567ffffffffffffffff81111561131357611312610de8565b5b61131f85828601610f05565b9150509250929050565b600081905092915050565b600061133f8261103b565b6113498185611329565b9350611359818560208601611057565b80840191505092915050565b60006113718284611334565b915081905092915050565b7f4e487b7100000000000000000000000000000000000000000000000000000000600052602260045260246000fd5b600060028204905060018216806113c357607f821691505b6020821081036113d6576113d561137c565b5b50919050565b7f4e487b7100000000000000000000000000000000000000000000000000000000600052603260045260246000fd5b600081905092915050565b60008190508160005260206000209050919050565b60008154611438816113ab565b611442818661140b565b9450600182166000811461145d5760018114611472576114a5565b60ff19831686528115158202860193506114a5565b61147b85611416565b60005b8381101561149d5781548189015260018201915060208101905061147e565b838801955050505b50505092915050565b60006114ba828461142b565b915081905092915050565b7f4e487b7100000000000000000000000000000000000000000000000000000000600052601160045260246000fd5b60006114ff82610fd8565b91507fffffffffffffffffffffffffffffffffffffffffffffffffffffffffffffffff8203611531576115306114c5565b5b600182019050919050565b60008190508160005260206000209050919050565b60006020601f8301049050919050565b600082821b905092915050565b60006008830261159e7fffffffffffffffffffffffffffffffffffffffffffffffffffffffffffffffff82611561565b6115a88683611561565b95508019841693508086168417925050509392505050565b6000819050919050565b60006115e56115e06115db84610fd8565b6115c0565b610fd8565b9050919050565b6000819050919050565b6115ff836115ca565b61161361160b826115ec565b84845461156e565b825550505050565b600090565b61162861161b565b6116338184846115f6565b505050565b5b818110156116575761164c600082611620565b600181019050611639565b5050565b601f82111561169c5761166d8161153c565b61167684611551565b81016020851015611685578190505b61169961169185611551565b830182611638565b50505b505050565b600082821c905092915050565b60006116bf600019846008026116a1565b1980831691505092915050565b60006116d883836116ae565b9150826002028217905092915050565b6116f18261103b565b67ffffffffffffffff81111561170a57611709610e08565b5b61171482546113ab565b61171f82828561165b565b600060209050601f8311600181146117525760008415611740578287015190505b61174a85826116cc565b8655506117b2565b601f1984166117608661153c565b60005b8281101561178857848901518255600182019150602085019450602081019050611763565b868310156117a557848901516117a1601f8916826116ae565b8355505b6001600288020188555050505b505050505050565b60006117c582610fd8565b91506117d083610fd8565b92508282039050818111156117e8576117e76114c5565b5b92915050565b600060608201905081810360008301526118088186611081565b9050611817602083018561116b565b611824604083018461116b565b94935050505056fea26469706673582212203b92a2c434a9172a06b323467242e787665ff6b8b30de8f51ebf26eb2f978cf264736f6c63430008110033",
  "immutableReferences": {},
  "source": "// SPDX-License-Identifier: GPL-3.0\n// \npragma solidity >0.8.0;\n\ncontract userContract {\n    constructor() {}\n\n    //\n    address public owner;\n\n    //\n    struct UserStruct {\n        address userAddress;\n        string username;\n        uint time;\n        uint index;\n    }\n\n    //\n    struct UserListStruct {\n        address userAddress;\n        uint index;\n    }\n\n    //\n    struct newsStruct {\n        string ipfsHash;\n        string username;\n        address userAddress;\n        uint time;\n        uint index;\n    }\n    string[] public newsHashList; //IPFS\n\n    address[] public userAddresses; //\n    // userAddresses.push(0x0987654321098765432109876543210987654321);\n    string[] private usernames; //\n\n    // newsStruct[] public NewsList; // \n\n    mapping(address => newsStruct) public NewsStruct;\n    /**\n     *  userStruct:{\n            0x1234567890123456789012345678901234567890: {\n                userAddress: 0x1234567890123456789012345678901234567890,\n                username: \"Alice\",\n                time: 1234567890,\n                index: 0\n            },\n            0x0987654321098765432109876543210987654321: {\n                userAddress: 0x0987654321098765432109876543210987654321,\n                username: \"Bob\",\n                time: 1234567900,\n                index: 1\n            }\n     } \n     */\n    mapping(address => UserStruct) private userStruct; //\n\n    /**\n     *  userListStruct:{\n        \"alice\": {\"userAddress\": \"0x1234567890abcdef\", \"index\": 0}\n        \"bob\": {\"userAddress\": \"0xabcdef1234567890\", \"index\": 1}\n     }\n     */\n    mapping(string => UserListStruct) private userListStruct; //\n\n    //user.sol\n    //\n    function isExitUserAddress(\n        address _userAddress\n    ) public view returns (bool isIndeed) {\n        if (userAddresses.length == 0) return false;\n        return (userAddresses[userStruct[_userAddress].index] == _userAddress);\n    }\n\n    function isNewsHashExist(\n        string memory _newsHash\n    ) public view returns (bool) {\n        for (uint i = 0; i < newsHashList.length; i++) {\n            if (\n                keccak256(bytes(newsHashList[i])) == keccak256(bytes(_newsHash))\n            ) {\n                return true;\n            }\n        }\n        return false;\n    }\n\n    // function isExitNewsHash(string memory _newsHash)public view returns(bool isIndeed){\n    //     if(newsHashList.length == 0) return true;\n    //     return (newsHashList[_newsHash].index == _newsHash);\n    // }\n    //\n    function isExitUsername(\n        string memory _username\n    ) public view returns (bool isIndeed) {\n        // flase\n        if (usernames.length == 0) return false;\n        // username == _usernametrueflase\n        return (keccak256(bytes(usernames[userListStruct[_username].index])) ==\n            keccak256(bytes(_username)));\n    }\n\n    //address\n    function findUserAddressByUsername(\n        string memory _username\n    ) public view returns (address userAddress) {\n        require(isExitUsername(_username));\n        return userListStruct[_username].userAddress;\n    }\n\n    // \n    event NewUserCreated(\n        address indexed _userAddress,\n        string _username,\n        uint _timestamp,\n        uint _index\n    );\n\n    //\n    //0\n    function createUser(\n        address _userAddress,\n        string memory _username\n    ) public returns (uint index) {\n        require(!isExitUserAddress(_userAddress)); //\n\n        userAddresses.push(_userAddress); //push\n        //\n        userStruct[_userAddress] = UserStruct(\n            _userAddress,\n            _username,\n            block.timestamp,\n            userAddresses.length - 1\n        );\n\n        usernames.push(_username); //push\n        //\n        userListStruct[_username] = UserListStruct(\n            _userAddress,\n            usernames.length - 1\n        );\n        emit NewUserCreated(\n            _userAddress,\n            _username,\n            block.timestamp,\n            userAddresses.length - 1\n        );\n        //\n        return userAddresses.length - 1;\n    }\n\n    //\n    function findUser(\n        address _userAddress\n    )\n        public\n        view\n        returns (\n            address userAddr,\n            string memory username,\n            uint time,\n            uint index\n        )\n    {\n        require(isExitUserAddress(_userAddress));\n        return (\n            userStruct[_userAddress].userAddress,\n            userStruct[_userAddress].username,\n            userStruct[_userAddress].time,\n            userStruct[_userAddress].index\n        );\n    }\n\n    // \n    event NewNewsCreated(\n        string _ipfsHash,\n        string _username,\n        address _userAddress,\n        uint _time,\n        uint _index\n    );\n\n    //\n    function createNews(\n        string memory _ipfsHash,\n        string memory _username,\n        address _userAddress\n    ) public returns (uint index) {\n        require(isExitUserAddress(_userAddress));\n        require(!isNewsHashExist(_ipfsHash));\n        newsHashList.push(_ipfsHash);\n        NewsStruct[_userAddress] = newsStruct(\n            _ipfsHash,\n            _username,\n            _userAddress,\n            block.timestamp,\n            newsHashList.length - 1\n        );\n        emit NewNewsCreated(\n            _ipfsHash,\n            _username,\n            _userAddress,\n            block.timestamp,\n            newsHashList.length - 1\n        );\n        return newsHashList.length - 1;\n    }\n}\n",
  "sourcePath": "/Users/hidioter/newsProject/newsContracts/contracts/userContract.sol",
  "compiler": {
    "name": "solc",
    "version": "0.8.17+commit.8df45f5f.Emscripten.clang"
  },
  "schemaVersion": "3.4.11",
  "updatedAt": "2023-05-02T07:47:53.964Z",
  "networkType": "ethereum",
  "devdoc": {
    "kind": "dev",
    "methods": {},
    "version": 1
  },
  "userdoc": {
    "kind": "user",
    "methods": {},
    "version": 1
  }
}